{
  "_format": "hh-sol-artifact-1",
  "contractName": "TokenExchange",
  "sourceName": "contracts/exchange.sol",
  "abi": [
    {
      "inputs": [],
      "stateMutability": "nonpayable",
      "type": "constructor"
    },
    {
      "anonymous": false,
      "inputs": [
        {
          "indexed": true,
          "internalType": "address",
          "name": "previousOwner",
          "type": "address"
        },
        {
          "indexed": true,
          "internalType": "address",
          "name": "newOwner",
          "type": "address"
        }
      ],
      "name": "OwnershipTransferred",
      "type": "event"
    },
    {
      "inputs": [
        {
          "internalType": "uint256",
          "name": "max_exchange_rate",
          "type": "uint256"
        },
        {
          "internalType": "uint256",
          "name": "min_exchange_rate",
          "type": "uint256"
        }
      ],
      "name": "addLiquidity",
      "outputs": [],
      "stateMutability": "payable",
      "type": "function"
    },
    {
      "inputs": [
        {
          "internalType": "uint256",
          "name": "amountTokens",
          "type": "uint256"
        }
      ],
      "name": "createPool",
      "outputs": [],
      "stateMutability": "payable",
      "type": "function"
    },
    {
      "inputs": [],
      "name": "exchange_name",
      "outputs": [
        {
          "internalType": "string",
          "name": "",
          "type": "string"
        }
      ],
      "stateMutability": "view",
      "type": "function"
    },
    {
      "inputs": [],
      "name": "getReserves",
      "outputs": [
        {
          "internalType": "uint256",
          "name": "",
          "type": "uint256"
        },
        {
          "internalType": "uint256",
          "name": "",
          "type": "uint256"
        }
      ],
      "stateMutability": "view",
      "type": "function"
    },
    {
      "inputs": [],
      "name": "getSwapFee",
      "outputs": [
        {
          "internalType": "uint256",
          "name": "",
          "type": "uint256"
        },
        {
          "internalType": "uint256",
          "name": "",
          "type": "uint256"
        }
      ],
      "stateMutability": "view",
      "type": "function"
    },
    {
      "inputs": [],
      "name": "owner",
      "outputs": [
        {
          "internalType": "address",
          "name": "",
          "type": "address"
        }
      ],
      "stateMutability": "view",
      "type": "function"
    },
    {
      "inputs": [
        {
          "internalType": "uint256",
          "name": "max_exchange_rate",
          "type": "uint256"
        },
        {
          "internalType": "uint256",
          "name": "min_exchange_rate",
          "type": "uint256"
        }
      ],
      "name": "removeAllLiquidity",
      "outputs": [],
      "stateMutability": "payable",
      "type": "function"
    },
    {
      "inputs": [
        {
          "internalType": "uint256",
          "name": "amountETH",
          "type": "uint256"
        },
        {
          "internalType": "uint256",
          "name": "max_exchange_rate",
          "type": "uint256"
        },
        {
          "internalType": "uint256",
          "name": "min_exchange_rate",
          "type": "uint256"
        }
      ],
      "name": "removeLiquidity",
      "outputs": [],
      "stateMutability": "payable",
      "type": "function"
    },
    {
      "inputs": [],
      "name": "renounceOwnership",
      "outputs": [],
      "stateMutability": "nonpayable",
      "type": "function"
    },
    {
      "inputs": [
        {
          "internalType": "uint256",
          "name": "min_exchange_rate",
          "type": "uint256"
        }
      ],
      "name": "swapETHForTokens",
      "outputs": [],
      "stateMutability": "payable",
      "type": "function"
    },
    {
      "inputs": [
        {
          "internalType": "uint256",
          "name": "amountTokens",
          "type": "uint256"
        },
        {
          "internalType": "uint256",
          "name": "min_exchange_rate",
          "type": "uint256"
        }
      ],
      "name": "swapTokensForETH",
      "outputs": [],
      "stateMutability": "payable",
      "type": "function"
    },
    {
      "inputs": [],
      "name": "token",
      "outputs": [
        {
          "internalType": "contract Token",
          "name": "",
          "type": "address"
        }
      ],
      "stateMutability": "view",
      "type": "function"
    },
    {
      "inputs": [
        {
          "internalType": "address",
          "name": "newOwner",
          "type": "address"
        }
      ],
      "name": "transferOwnership",
      "outputs": [],
      "stateMutability": "nonpayable",
      "type": "function"
    }
  ],
  "bytecode": "0x60806040526040518060400160405280600a81526020017f464949546368616e676500000000000000000000000000000000000000000000815250600190816200004a919062000491565b50735fbdb2315678afecb367f032d93f642f64180aa3600260006101000a81548173ffffffffffffffffffffffffffffffffffffffff021916908373ffffffffffffffffffffffffffffffffffffffff160217905550600260009054906101000a900473ffffffffffffffffffffffffffffffffffffffff16600360006101000a81548173ffffffffffffffffffffffffffffffffffffffff021916908373ffffffffffffffffffffffffffffffffffffffff1602179055506000600455600060055560036009556064600a553480156200012457600080fd5b5062000145620001396200014b60201b60201c565b6200015360201b60201c565b62000578565b600033905090565b60008060009054906101000a900473ffffffffffffffffffffffffffffffffffffffff169050816000806101000a81548173ffffffffffffffffffffffffffffffffffffffff021916908373ffffffffffffffffffffffffffffffffffffffff1602179055508173ffffffffffffffffffffffffffffffffffffffff168173ffffffffffffffffffffffffffffffffffffffff167f8be0079c531659141344cd1fd0a4f28419497f9722a3daafe3b4186f6b6457e060405160405180910390a35050565b600081519050919050565b7f4e487b7100000000000000000000000000000000000000000000000000000000600052604160045260246000fd5b7f4e487b7100000000000000000000000000000000000000000000000000000000600052602260045260246000fd5b600060028204905060018216806200029957607f821691505b602082108103620002af57620002ae62000251565b5b50919050565b60008190508160005260206000209050919050565b60006020601f8301049050919050565b600082821b905092915050565b600060088302620003197fffffffffffffffffffffffffffffffffffffffffffffffffffffffffffffffff82620002da565b620003258683620002da565b95508019841693508086168417925050509392505050565b6000819050919050565b6000819050919050565b6000620003726200036c62000366846200033d565b62000347565b6200033d565b9050919050565b6000819050919050565b6200038e8362000351565b620003a66200039d8262000379565b848454620002e7565b825550505050565b600090565b620003bd620003ae565b620003ca81848462000383565b505050565b5b81811015620003f257620003e6600082620003b3565b600181019050620003d0565b5050565b601f82111562000441576200040b81620002b5565b6200041684620002ca565b8101602085101562000426578190505b6200043e6200043585620002ca565b830182620003cf565b50505b505050565b600082821c905092915050565b6000620004666000198460080262000446565b1980831691505092915050565b600062000481838362000453565b9150826002028217905092915050565b6200049c8262000217565b67ffffffffffffffff811115620004b857620004b762000222565b5b620004c4825462000280565b620004d1828285620003f6565b600060209050601f831160018114620005095760008415620004f4578287015190505b62000500858262000473565b86555062000570565b601f1984166200051986620002b5565b60005b8281101562000543578489015182556001820191506020850194506020810190506200051c565b868310156200056357848901516200055f601f89168262000453565b8355505b6001600288020188555050505b505050505050565b6137ef80620005886000396000f3fe6080604052600436106100c25760003560e01c80638da5cb5b1161007f578063d4cadf6811610059578063d4cadf68146101dd578063f2fde38b14610209578063f694f7d114610232578063fc0c546a1461025d576100c2565b80638da5cb5b1461017a5780639cd441da146101a5578063a22280a6146101c1576100c2565b80630902f1ac146100c75780632eab2841146100f357806358ad6de41461010f578063715018a61461012b5780638259e6a014610142578063857620e11461015e575b600080fd5b3480156100d357600080fd5b506100dc610288565b6040516100ea92919061253f565b60405180910390f35b61010d60048036038101906101089190612599565b610299565b005b610129600480360381019061012491906125c6565b61058f565b005b34801561013757600080fd5b50610140610ad9565b005b61015c60048036038101906101579190612599565b610aed565b005b61017860048036038101906101739190612606565b610e4e565b005b34801561018657600080fd5b5061018f6113c8565b60405161019c919061269a565b60405180910390f35b6101bf60048036038101906101ba91906125c6565b6113f1565b005b6101db60048036038101906101d691906125c6565b611af3565b005b3480156101e957600080fd5b506101f2611e97565b60405161020092919061253f565b60405180910390f35b34801561021557600080fd5b50610230600480360381019061022b91906126e1565b611ea8565b005b34801561023e57600080fd5b50610247611f2b565b604051610254919061279e565b60405180910390f35b34801561026957600080fd5b50610272611fb9565b60405161027f919061281f565b60405180910390f35b600080600454600554915091509091565b600034116102dc576040517f08c379a00000000000000000000000000000000000000000000000000000000081526004016102d390612886565b60405180910390fd5b600060055411610321576040517f08c379a0000000000000000000000000000000000000000000000000000000008152600401610318906128f2565b60405180910390fd5b6000600554600454346103349190612941565b61033e91906129b2565b9050600160045461034f91906129e3565b811115610391576040517f08c379a000000000000000000000000000000000000000000000000000000000815260040161038890612a63565b60405180910390fd5b6000600a54600954836103a49190612941565b6103ae91906129b2565b905080826103bc91906129e3565b91506000346103e8846103cf9190612941565b6103d991906129b2565b90508381101561041e576040517f08c379a000000000000000000000000000000000000000000000000000000000815260040161041590612af5565b60405180910390fd5b826004600082825461043091906129e3565b9250508190555034600560008282546104499190612b15565b925050819055506104916040518060400160405280600981526020017f6b206265666f72653a0000000000000000000000000000000000000000000000815250600b54611fdf565b6005546004546104a19190612941565b600b819055506104e86040518060400160405280600881526020017f6b2061667465723a000000000000000000000000000000000000000000000000815250600b54611fdf565b600360009054906101000a900473ffffffffffffffffffffffffffffffffffffffff1673ffffffffffffffffffffffffffffffffffffffff1663a9059cbb33856040518363ffffffff1660e01b8152600401610545929190612b49565b6020604051808303816000875af1158015610564573d6000803e3d6000fd5b505050506040513d601f19601f820116820180604052508101906105889190612baa565b5050505050565b6000600660003373ffffffffffffffffffffffffffffffffffffffff1673ffffffffffffffffffffffffffffffffffffffff1681526020019081526020016000205411610611576040517f08c379a000000000000000000000000000000000000000000000000000000000815260040161060890612c23565b60405180910390fd5b60006005546103e86004546106269190612941565b61063091906129b2565b905082811115610675576040517f08c379a000000000000000000000000000000000000000000000000000000000815260040161066c90612cb5565b60405180910390fd5b818110156106b8576040517f08c379a00000000000000000000000000000000000000000000000000000000081526004016106af90612d47565b60405180910390fd5b6000600754600554600660003373ffffffffffffffffffffffffffffffffffffffff1673ffffffffffffffffffffffffffffffffffffffff1681526020019081526020016000205461070a9190612941565b61071491906129b2565b90506000600554600454836107299190612941565b61073391906129b2565b905061073e8261207b565b600160055461074d91906129e3565b82111561078f576040517f08c379a000000000000000000000000000000000000000000000000000000000815260040161078690612db3565b60405180910390fd5b600160045461079e91906129e3565b8111156107e0576040517f08c379a00000000000000000000000000000000000000000000000000000000081526004016107d790612a63565b60405180910390fd5b80600460008282546107f291906129e3565b92505081905550816005600082825461080b91906129e3565b925050819055506108536040518060400160405280600981526020017f6b206265666f72653a0000000000000000000000000000000000000000000000815250600b54611fdf565b6005546004546108639190612941565b600b819055506108aa6040518060400160405280600881526020017f6b2061667465723a000000000000000000000000000000000000000000000000815250600b54611fdf565b60005b60088054905081101561094c573373ffffffffffffffffffffffffffffffffffffffff16600882815481106108e5576108e4612dd3565b5b9060005260206000200160009054906101000a900473ffffffffffffffffffffffffffffffffffffffff1673ffffffffffffffffffffffffffffffffffffffff16036109395761093481612114565b61094c565b808061094490612e02565b9150506108ad565b50600660003373ffffffffffffffffffffffffffffffffffffffff1673ffffffffffffffffffffffffffffffffffffffff168152602001908152602001600020546007600082825461099e91906129e3565b925050819055506000600660003373ffffffffffffffffffffffffffffffffffffffff1673ffffffffffffffffffffffffffffffffffffffff16815260200190815260200160002081905550600360009054906101000a900473ffffffffffffffffffffffffffffffffffffffff1673ffffffffffffffffffffffffffffffffffffffff1663a9059cbb33836040518363ffffffff1660e01b8152600401610a47929190612b49565b6020604051808303816000875af1158015610a66573d6000803e3d6000fd5b505050506040513d601f19601f82011682018060405250810190610a8a9190612baa565b503373ffffffffffffffffffffffffffffffffffffffff166108fc839081150290604051600060405180830381858888f19350505050158015610ad1573d6000803e3d6000fd5b505050505050565b610ae1612251565b610aeb60006122cf565b565b610af5612251565b600060045414610b3a576040517f08c379a0000000000000000000000000000000000000000000000000000000008152600401610b3190612e96565b60405180910390fd5b600060055414610b7f576040517f08c379a0000000000000000000000000000000000000000000000000000000008152600401610b7690612f02565b60405180910390fd5b60003411610bc2576040517f08c379a0000000000000000000000000000000000000000000000000000000008152600401610bb990612f6e565b60405180910390fd5b6000600360009054906101000a900473ffffffffffffffffffffffffffffffffffffffff1673ffffffffffffffffffffffffffffffffffffffff166370a08231336040518263ffffffff1660e01b8152600401610c1f919061269a565b602060405180830381865afa158015610c3c573d6000803e3d6000fd5b505050506040513d601f19601f82011682018060405250810190610c609190612fa3565b905080821115610ca5576040517f08c379a0000000000000000000000000000000000000000000000000000000008152600401610c9c90613042565b60405180910390fd5b60008211610ce8576040517f08c379a0000000000000000000000000000000000000000000000000000000008152600401610cdf906130ae565b60405180910390fd5b600360009054906101000a900473ffffffffffffffffffffffffffffffffffffffff1673ffffffffffffffffffffffffffffffffffffffff166323b872dd3330856040518463ffffffff1660e01b8152600401610d47939291906130ce565b6020604051808303816000875af1158015610d66573d6000803e3d6000fd5b505050506040513d601f19601f82011682018060405250810190610d8a9190612baa565b50600360009054906101000a900473ffffffffffffffffffffffffffffffffffffffff1673ffffffffffffffffffffffffffffffffffffffff166370a08231306040518263ffffffff1660e01b8152600401610de6919061269a565b602060405180830381865afa158015610e03573d6000803e3d6000fd5b505050506040513d601f19601f82011682018060405250810190610e279190612fa3565b60048190555034600581905550600554600454610e449190612941565b600b819055505050565b60008311610e91576040517f08c379a0000000000000000000000000000000000000000000000000000000008152600401610e8890613151565b60405180910390fd5b6001600554610ea091906129e3565b831115610ee2576040517f08c379a0000000000000000000000000000000000000000000000000000000008152600401610ed990612db3565b60405180910390fd5b600754600554600660003373ffffffffffffffffffffffffffffffffffffffff1673ffffffffffffffffffffffffffffffffffffffff16815260200190815260200160002054610f329190612941565b610f3c91906129b2565b831115610f7e576040517f08c379a0000000000000000000000000000000000000000000000000000000008152600401610f75906131e3565b60405180910390fd5b60006005546103e8600454610f939190612941565b610f9d91906129b2565b905082811115610fe2576040517f08c379a0000000000000000000000000000000000000000000000000000000008152600401610fd990612cb5565b60405180910390fd5b81811015611025576040517f08c379a000000000000000000000000000000000000000000000000000000000815260040161101c90612d47565b60405180910390fd5b6000600554600454866110389190612941565b61104291906129b2565b9050600160045461105391906129e3565b811115611095576040517f08c379a000000000000000000000000000000000000000000000000000000000815260040161108c90612a63565b60405180910390fd5b6000600554600754876110a89190612941565b6110b291906129b2565b905080600760008282546110c691906129e3565b9250508190555080600660003373ffffffffffffffffffffffffffffffffffffffff1673ffffffffffffffffffffffffffffffffffffffff168152602001908152602001600020600082825461111c91906129e3565b92505081905550816004600082825461113591906129e3565b92505081905550856005600082825461114e91906129e3565b925050819055506111966040518060400160405280600981526020017f6b206265666f72653a0000000000000000000000000000000000000000000000815250600b54611fdf565b6005546004546111a69190612941565b600b819055506111ed6040518060400160405280600881526020017f6b2061667465723a000000000000000000000000000000000000000000000000815250600b54611fdf565b6000600660003373ffffffffffffffffffffffffffffffffffffffff1673ffffffffffffffffffffffffffffffffffffffff16815260200190815260200160002054036112d85760005b6008805490508110156112d6573373ffffffffffffffffffffffffffffffffffffffff166008828154811061126f5761126e612dd3565b5b9060005260206000200160009054906101000a900473ffffffffffffffffffffffffffffffffffffffff1673ffffffffffffffffffffffffffffffffffffffff16036112c3576112be81612114565b6112d6565b80806112ce90612e02565b915050611237565b505b600360009054906101000a900473ffffffffffffffffffffffffffffffffffffffff1673ffffffffffffffffffffffffffffffffffffffff1663a9059cbb33846040518363ffffffff1660e01b8152600401611335929190612b49565b6020604051808303816000875af1158015611354573d6000803e3d6000fd5b505050506040513d601f19601f820116820180604052508101906113789190612baa565b503373ffffffffffffffffffffffffffffffffffffffff166108fc879081150290604051600060405180830381858888f193505050501580156113bf573d6000803e3d6000fd5b50505050505050565b60008060009054906101000a900473ffffffffffffffffffffffffffffffffffffffff16905090565b61142a604051806060016040528060228152602001613677602291393373ffffffffffffffffffffffffffffffffffffffff1631611fdf565b61144c6040518060600160405280602681526020016136996026913934611fdf565b6000341161148f576040517f08c379a00000000000000000000000000000000000000000000000000000000081526004016114869061324f565b60405180910390fd5b6114ec604051806060016040528060258152602001613771602591396004546040518060400160405280601481526020017f6574685f7265736572766573202845544829203d000000000000000000000000815250600554612393565b600060045411801561150057506000600554115b61153f576040517f08c379a0000000000000000000000000000000000000000000000000000000008152600401611536906128f2565b60405180910390fd5b60006005546103e86004546115549190612941565b61155e91906129b2565b905061158260405180608001604052806044815260200161372d6044913982611fdf565b6115a46040518060600160405280602181526020016136346021913984611fdf565b6115c66040518060600160405280602181526020016136bf6021913983611fdf565b82811115611609576040517f08c379a000000000000000000000000000000000000000000000000000000000815260040161160090612cb5565b60405180910390fd5b8181101561164c576040517f08c379a000000000000000000000000000000000000000000000000000000000815260040161164390612d47565b60405180910390fd5b60006005546004543461165f9190612941565b61166991906129b2565b905061168d6040518060600160405280602281526020016136556022913982611fdf565b6000600360009054906101000a900473ffffffffffffffffffffffffffffffffffffffff1673ffffffffffffffffffffffffffffffffffffffff166370a08231336040518263ffffffff1660e01b81526004016116ea919061269a565b602060405180830381865afa158015611707573d6000803e3d6000fd5b505050506040513d601f19601f8201168201806040525081019061172b9190612fa3565b905061174f6040518060600160405280602b81526020016136e0602b913982611fdf565b81811015611792576040517f08c379a0000000000000000000000000000000000000000000000000000000008152600401611789906132bb565b60405180910390fd5b6117b360405180606001604052806022815260200161370b60229139612435565b600360009054906101000a900473ffffffffffffffffffffffffffffffffffffffff1673ffffffffffffffffffffffffffffffffffffffff166323b872dd3330856040518463ffffffff1660e01b8152600401611812939291906130ce565b6020604051808303816000875af1158015611831573d6000803e3d6000fd5b505050506040513d601f19601f820116820180604052508101906118559190612baa565b5081600460008282546118689190612b15565b9250508190555034600560008282546118819190612b15565b925050819055506118c96040518060400160405280600981526020017f6b206265666f72653a0000000000000000000000000000000000000000000000815250600b54611fdf565b6005546004546118d99190612941565b600b819055506119206040518060400160405280600881526020017f6b2061667465723a000000000000000000000000000000000000000000000000815250600b54611fdf565b6000600660003373ffffffffffffffffffffffffffffffffffffffff1673ffffffffffffffffffffffffffffffffffffffff16815260200190815260200160002054036119cb576008339080600181540180825580915050600190039060005260206000200160009091909190916101000a81548173ffffffffffffffffffffffffffffffffffffffff021916908373ffffffffffffffffffffffffffffffffffffffff1602179055505b600080600754036119e757600554600781905550349050611a1e565b600554600754346119f89190612941565b611a0291906129b2565b90508060076000828254611a169190612b15565b925050819055505b80600660003373ffffffffffffffffffffffffffffffffffffffff1673ffffffffffffffffffffffffffffffffffffffff1681526020019081526020016000206000828254611a6d9190612b15565b92505081905550611a9560405180606001604052806024815260200161379660249139612435565b611aeb6040518060400160405280602081526020017f53656e646572204554482062616c616e636520617420656e642028776569293a8152503373ffffffffffffffffffffffffffffffffffffffff1631611fdf565b505050505050565b60008211611b36576040517f08c379a0000000000000000000000000000000000000000000000000000000008152600401611b2d90613327565b60405180910390fd5b6001600454611b4591906129e3565b821115611b87576040517f08c379a0000000000000000000000000000000000000000000000000000000008152600401611b7e90612a63565b60405180910390fd5b600060045460055484611b9a9190612941565b611ba491906129b2565b90506001600554611bb591906129e3565b811115611bf7576040517f08c379a0000000000000000000000000000000000000000000000000000000008152600401611bee90612db3565b60405180910390fd5b6000600a5460095483611c0a9190612941565b611c1491906129b2565b90508082611c2291906129e3565b9150611c636040518060400160405280600481526020017f4665653a0000000000000000000000000000000000000000000000000000000081525082611fdf565b6000846103e884611c749190612941565b611c7e91906129b2565b905083811015611cc3576040517f08c379a0000000000000000000000000000000000000000000000000000000008152600401611cba90612af5565b60405180910390fd5b600360009054906101000a900473ffffffffffffffffffffffffffffffffffffffff1673ffffffffffffffffffffffffffffffffffffffff166323b872dd3330886040518463ffffffff1660e01b8152600401611d22939291906130ce565b6020604051808303816000875af1158015611d41573d6000803e3d6000fd5b505050506040513d601f19601f82011682018060405250810190611d659190612baa565b508460046000828254611d789190612b15565b925050819055508260056000828254611d9191906129e3565b925050819055508160056000828254611daa9190612b15565b92505081905550611df26040518060400160405280600981526020017f6b206265666f72653a0000000000000000000000000000000000000000000000815250600b54611fdf565b600554600454611e029190612941565b600b81905550611e496040518060400160405280600881526020017f6b2061667465723a000000000000000000000000000000000000000000000000815250600b54611fdf565b3373ffffffffffffffffffffffffffffffffffffffff166108fc849081150290604051600060405180830381858888f19350505050158015611e8f573d6000803e3d6000fd5b505050505050565b600080600954600a54915091509091565b611eb0612251565b600073ffffffffffffffffffffffffffffffffffffffff168173ffffffffffffffffffffffffffffffffffffffff1603611f1f576040517f08c379a0000000000000000000000000000000000000000000000000000000008152600401611f16906133b9565b60405180910390fd5b611f28816122cf565b50565b60018054611f3890613408565b80601f0160208091040260200160405190810160405280929190818152602001828054611f6490613408565b8015611fb15780601f10611f8657610100808354040283529160200191611fb1565b820191906000526020600020905b815481529060010190602001808311611f9457829003601f168201915b505050505081565b600360009054906101000a900473ffffffffffffffffffffffffffffffffffffffff1681565b6120778282604051602401611ff5929190613439565b6040516020818303038152906040527fb60e72cc000000000000000000000000000000000000000000000000000000007bffffffffffffffffffffffffffffffffffffffffffffffffffffffff19166020820180517bffffffffffffffffffffffffffffffffffffffffffffffffffffffff83818316178352505050506124ce565b5050565b6121118160405160240161208f9190613469565b6040516020818303038152906040527ff82c50f1000000000000000000000000000000000000000000000000000000007bffffffffffffffffffffffffffffffffffffffffffffffffffffffff19166020820180517bffffffffffffffffffffffffffffffffffffffffffffffffffffffff83818316178352505050506124ce565b50565b600880549050811061215b576040517f08c379a0000000000000000000000000000000000000000000000000000000008152600401612152906134f6565b60405180910390fd5b6008600160088054905061216f91906129e3565b815481106121805761217f612dd3565b5b9060005260206000200160009054906101000a900473ffffffffffffffffffffffffffffffffffffffff16600882815481106121bf576121be612dd3565b5b9060005260206000200160006101000a81548173ffffffffffffffffffffffffffffffffffffffff021916908373ffffffffffffffffffffffffffffffffffffffff160217905550600880548061221957612218613516565b5b6001900381819060005260206000200160006101000a81549073ffffffffffffffffffffffffffffffffffffffff0219169055905550565b6122596124e8565b73ffffffffffffffffffffffffffffffffffffffff166122776113c8565b73ffffffffffffffffffffffffffffffffffffffff16146122cd576040517f08c379a00000000000000000000000000000000000000000000000000000000081526004016122c490613591565b60405180910390fd5b565b60008060009054906101000a900473ffffffffffffffffffffffffffffffffffffffff169050816000806101000a81548173ffffffffffffffffffffffffffffffffffffffff021916908373ffffffffffffffffffffffffffffffffffffffff1602179055508173ffffffffffffffffffffffffffffffffffffffff168173ffffffffffffffffffffffffffffffffffffffff167f8be0079c531659141344cd1fd0a4f28419497f9722a3daafe3b4186f6b6457e060405160405180910390a35050565b61242f848484846040516024016123ad94939291906135b1565b6040516020818303038152906040527fc67ea9d1000000000000000000000000000000000000000000000000000000007bffffffffffffffffffffffffffffffffffffffffffffffffffffffff19166020820180517bffffffffffffffffffffffffffffffffffffffffffffffffffffffff83818316178352505050506124ce565b50505050565b6124cb81604051602401612449919061279e565b6040516020818303038152906040527f41304fac000000000000000000000000000000000000000000000000000000007bffffffffffffffffffffffffffffffffffffffffffffffffffffffff19166020820180517bffffffffffffffffffffffffffffffffffffffffffffffffffffffff83818316178352505050506124ce565b50565b6124e5816124dd6124f0612511565b63ffffffff16565b50565b600033905090565b60006a636f6e736f6c652e6c6f679050600080835160208501845afa505050565b61251c819050919050565b612524613604565b565b6000819050919050565b61253981612526565b82525050565b60006040820190506125546000830185612530565b6125616020830184612530565b9392505050565b600080fd5b61257681612526565b811461258157600080fd5b50565b6000813590506125938161256d565b92915050565b6000602082840312156125af576125ae612568565b5b60006125bd84828501612584565b91505092915050565b600080604083850312156125dd576125dc612568565b5b60006125eb85828601612584565b92505060206125fc85828601612584565b9150509250929050565b60008060006060848603121561261f5761261e612568565b5b600061262d86828701612584565b935050602061263e86828701612584565b925050604061264f86828701612584565b9150509250925092565b600073ffffffffffffffffffffffffffffffffffffffff82169050919050565b600061268482612659565b9050919050565b61269481612679565b82525050565b60006020820190506126af600083018461268b565b92915050565b6126be81612679565b81146126c957600080fd5b50565b6000813590506126db816126b5565b92915050565b6000602082840312156126f7576126f6612568565b5b6000612705848285016126cc565b91505092915050565b600081519050919050565b600082825260208201905092915050565b60005b8381101561274857808201518184015260208101905061272d565b60008484015250505050565b6000601f19601f8301169050919050565b60006127708261270e565b61277a8185612719565b935061278a81856020860161272a565b61279381612754565b840191505092915050565b600060208201905081810360008301526127b88184612765565b905092915050565b6000819050919050565b60006127e56127e06127db84612659565b6127c0565b612659565b9050919050565b60006127f7826127ca565b9050919050565b6000612809826127ec565b9050919050565b612819816127fe565b82525050565b60006020820190506128346000830184612810565b92915050565b7f4d7573742073656e642045544820746f20737761700000000000000000000000600082015250565b6000612870601583612719565b915061287b8261283a565b602082019050919050565b6000602082019050818103600083015261289f81612863565b9050919050565b7f506f6f6c206e6f7420696e697469616c697a6564000000000000000000000000600082015250565b60006128dc601483612719565b91506128e7826128a6565b602082019050919050565b6000602082019050818103600083015261290b816128cf565b9050919050565b7f4e487b7100000000000000000000000000000000000000000000000000000000600052601160045260246000fd5b600061294c82612526565b915061295783612526565b925082820261296581612526565b9150828204841483151761297c5761297b612912565b5b5092915050565b7f4e487b7100000000000000000000000000000000000000000000000000000000600052601260045260246000fd5b60006129bd82612526565b91506129c883612526565b9250826129d8576129d7612983565b5b828204905092915050565b60006129ee82612526565b91506129f983612526565b9250828203905081811115612a1157612a10612912565b5b92915050565b7f4e6f7420656e6f75676820746f6b656e7320696e207265736572766573000000600082015250565b6000612a4d601d83612719565b9150612a5882612a17565b602082019050919050565b60006020820190508181036000830152612a7c81612a40565b9050919050565b7f536c69707061676520746f6f20686967683a2065786368616e6765207261746560008201527f2062656c6f77206d696e696d756d000000000000000000000000000000000000602082015250565b6000612adf602e83612719565b9150612aea82612a83565b604082019050919050565b60006020820190508181036000830152612b0e81612ad2565b9050919050565b6000612b2082612526565b9150612b2b83612526565b9250828201905080821115612b4357612b42612912565b5b92915050565b6000604082019050612b5e600083018561268b565b612b6b6020830184612530565b9392505050565b60008115159050919050565b612b8781612b72565b8114612b9257600080fd5b50565b600081519050612ba481612b7e565b92915050565b600060208284031215612bc057612bbf612568565b5b6000612bce84828501612b95565b91505092915050565b7f4e6f206c697175696469747920746f2072656d6f766500000000000000000000600082015250565b6000612c0d601683612719565b9150612c1882612bd7565b602082019050919050565b60006020820190508181036000830152612c3c81612c00565b9050919050565b7f536c69707061676520746f6f20686967683a2065786368616e6765207261746560008201527f2061626f7665206d6178696d756d000000000000000000000000000000000000602082015250565b6000612c9f602e83612719565b9150612caa82612c43565b604082019050919050565b60006020820190508181036000830152612cce81612c92565b9050919050565b7f536c69707061676520746f6f206c6f773a2065786368616e676520726174652060008201527f62656c6f77206d696e696d756d00000000000000000000000000000000000000602082015250565b6000612d31602d83612719565b9150612d3c82612cd5565b604082019050919050565b60006020820190508181036000830152612d6081612d24565b9050919050565b7f4e6f7420656e6f7567682045544820696e207265736572766573000000000000600082015250565b6000612d9d601a83612719565b9150612da882612d67565b602082019050919050565b60006020820190508181036000830152612dcc81612d90565b9050919050565b7f4e487b7100000000000000000000000000000000000000000000000000000000600052603260045260246000fd5b6000612e0d82612526565b91507fffffffffffffffffffffffffffffffffffffffffffffffffffffffffffffffff8203612e3f57612e3e612912565b5b600182019050919050565b7f546f6b656e20726573657276657320776173206e6f7420300000000000000000600082015250565b6000612e80601883612719565b9150612e8b82612e4a565b602082019050919050565b60006020820190508181036000830152612eaf81612e73565b9050919050565b7f45544820726573657276657320776173206e6f7420302e000000000000000000600082015250565b6000612eec601783612719565b9150612ef782612eb6565b602082019050919050565b60006020820190508181036000830152612f1b81612edf565b9050919050565b7f4e6565642065746820746f2063726561746520706f6f6c2e0000000000000000600082015250565b6000612f58601883612719565b9150612f6382612f22565b602082019050919050565b60006020820190508181036000830152612f8781612f4b565b9050919050565b600081519050612f9d8161256d565b92915050565b600060208284031215612fb957612fb8612568565b5b6000612fc784828501612f8e565b91505092915050565b7f4e6f74206861766520656e6f75676820746f6b656e7320746f2063726561746560008201527f2074686520706f6f6c0000000000000000000000000000000000000000000000602082015250565b600061302c602983612719565b915061303782612fd0565b604082019050919050565b6000602082019050818103600083015261305b8161301f565b9050919050565b7f4e65656420746f6b656e7320746f2063726561746520706f6f6c2e0000000000600082015250565b6000613098601b83612719565b91506130a382613062565b602082019050919050565b600060208201905081810360008301526130c78161308b565b9050919050565b60006060820190506130e3600083018661268b565b6130f0602083018561268b565b6130fd6040830184612530565b949350505050565b7f416d6f756e74206d7573742062652067726561746572207468616e2030000000600082015250565b600061313b601d83612719565b915061314682613105565b602082019050919050565b6000602082019050818103600083015261316a8161312e565b9050919050565b7f4e6f7420656e6f756768206c69717569646974792070726f766964656420627960008201527f2073656e64657200000000000000000000000000000000000000000000000000602082015250565b60006131cd602783612719565b91506131d882613171565b604082019050919050565b600060208201905081810360008301526131fc816131c0565b9050919050565b7f4e6565642045544820746f20616464206c697175696469747900000000000000600082015250565b6000613239601983612719565b915061324482613203565b602082019050919050565b600060208201905081810360008301526132688161322c565b9050919050565b7f496e73756666696369656e7420746f6b656e2062616c616e6365000000000000600082015250565b60006132a5601a83612719565b91506132b08261326f565b602082019050919050565b600060208201905081810360008301526132d481613298565b9050919050565b7f4d7573742073656e6420746f6b656e7320746f20737761700000000000000000600082015250565b6000613311601883612719565b915061331c826132db565b602082019050919050565b6000602082019050818103600083015261334081613304565b9050919050565b7f4f776e61626c653a206e6577206f776e657220697320746865207a65726f206160008201527f6464726573730000000000000000000000000000000000000000000000000000602082015250565b60006133a3602683612719565b91506133ae82613347565b604082019050919050565b600060208201905081810360008301526133d281613396565b9050919050565b7f4e487b7100000000000000000000000000000000000000000000000000000000600052602260045260246000fd5b6000600282049050600182168061342057607f821691505b602082108103613433576134326133d9565b5b50919050565b600060408201905081810360008301526134538185612765565b90506134626020830184612530565b9392505050565b600060208201905061347e6000830184612530565b92915050565b7f73706563696669656420696e646578206973206c6172676572207468616e207460008201527f6865206e756d626572206f66206c707300000000000000000000000000000000602082015250565b60006134e0603083612719565b91506134eb82613484565b604082019050919050565b6000602082019050818103600083015261350f816134d3565b9050919050565b7f4e487b7100000000000000000000000000000000000000000000000000000000600052603160045260246000fd5b7f4f776e61626c653a2063616c6c6572206973206e6f7420746865206f776e6572600082015250565b600061357b602083612719565b915061358682613545565b602082019050919050565b600060208201905081810360008301526135aa8161356e565b9050919050565b600060808201905081810360008301526135cb8187612765565b90506135da6020830186612530565b81810360408301526135ec8185612765565b90506135fb6060830184612530565b95945050505050565b7f4e487b7100000000000000000000000000000000000000000000000000000000600052605160045260246000fdfe6164644c69717569646974793a206d61785f65786368616e67655f72617465203d6164644c69717569646974793a20746f6b656e416d6f756e74202850524d5429203d53656e646572204554482062616c616e63652061742073746172742028776569293a6164644c69717569646974793a206d73672e76616c7565202845544820696e2077656929203d6164644c69717569646974793a206d696e5f65786368616e67655f72617465203d6164644c69717569646974793a2073656e64657220746f6b656e2062616c616e6365202850524d5429203d6164644c69717569646974793a2063616c6c696e67207472616e7366657246726f6d6164644c69717569646974793a2063757272656e745f65786368616e67655f72617465202850524d5420706572204554482c207363616c6564206279203130303029203d6164644c69717569646974793a20746f6b656e5f7265736572766573202850524d5429203d6164644c69717569646974793a20636f6d706c65746564207375636365737366756c6c79a2646970667358221220025af277fa5ec721eb6609ecf11e52cef1aff0b8344e0cd5d5f7743451081f5764736f6c63430008110033",
  "linkReferences": {},
  "deployedLinkReferences": {}
}