{
  "_format": "hh-sol-artifact-1",
  "contractName": "TokenExchange",
  "sourceName": "contracts/exchange.sol",
  "abi": [
    {
      "inputs": [],
      "stateMutability": "nonpayable",
      "type": "constructor"
    },
    {
      "anonymous": false,
      "inputs": [
        {
          "indexed": true,
          "internalType": "address",
          "name": "previousOwner",
          "type": "address"
        },
        {
          "indexed": true,
          "internalType": "address",
          "name": "newOwner",
          "type": "address"
        }
      ],
      "name": "OwnershipTransferred",
      "type": "event"
    },
    {
      "inputs": [
        {
          "internalType": "uint256",
          "name": "max_exchange_rate",
          "type": "uint256"
        },
        {
          "internalType": "uint256",
          "name": "min_exchange_rate",
          "type": "uint256"
        }
      ],
      "name": "addLiquidity",
      "outputs": [],
      "stateMutability": "payable",
      "type": "function"
    },
    {
      "inputs": [
        {
          "internalType": "uint256",
          "name": "amountTokens",
          "type": "uint256"
        }
      ],
      "name": "createPool",
      "outputs": [],
      "stateMutability": "payable",
      "type": "function"
    },
    {
      "inputs": [],
      "name": "exchange_name",
      "outputs": [
        {
          "internalType": "string",
          "name": "",
          "type": "string"
        }
      ],
      "stateMutability": "view",
      "type": "function"
    },
    {
      "inputs": [],
      "name": "getReserves",
      "outputs": [
        {
          "internalType": "uint256",
          "name": "",
          "type": "uint256"
        },
        {
          "internalType": "uint256",
          "name": "",
          "type": "uint256"
        }
      ],
      "stateMutability": "view",
      "type": "function"
    },
    {
      "inputs": [],
      "name": "getSwapFee",
      "outputs": [
        {
          "internalType": "uint256",
          "name": "",
          "type": "uint256"
        },
        {
          "internalType": "uint256",
          "name": "",
          "type": "uint256"
        }
      ],
      "stateMutability": "view",
      "type": "function"
    },
    {
      "inputs": [],
      "name": "owner",
      "outputs": [
        {
          "internalType": "address",
          "name": "",
          "type": "address"
        }
      ],
      "stateMutability": "view",
      "type": "function"
    },
    {
      "inputs": [
        {
          "internalType": "uint256",
          "name": "max_exchange_rate",
          "type": "uint256"
        },
        {
          "internalType": "uint256",
          "name": "min_exchange_rate",
          "type": "uint256"
        }
      ],
      "name": "removeAllLiquidity",
      "outputs": [],
      "stateMutability": "payable",
      "type": "function"
    },
    {
      "inputs": [
        {
          "internalType": "uint256",
          "name": "amountETH",
          "type": "uint256"
        },
        {
          "internalType": "uint256",
          "name": "max_exchange_rate",
          "type": "uint256"
        },
        {
          "internalType": "uint256",
          "name": "min_exchange_rate",
          "type": "uint256"
        }
      ],
      "name": "removeLiquidity",
      "outputs": [],
      "stateMutability": "payable",
      "type": "function"
    },
    {
      "inputs": [],
      "name": "renounceOwnership",
      "outputs": [],
      "stateMutability": "nonpayable",
      "type": "function"
    },
    {
      "inputs": [
        {
          "internalType": "uint256",
          "name": "min_exchange_rate",
          "type": "uint256"
        }
      ],
      "name": "swapETHForTokens",
      "outputs": [],
      "stateMutability": "payable",
      "type": "function"
    },
    {
      "inputs": [
        {
          "internalType": "uint256",
          "name": "amountTokens",
          "type": "uint256"
        },
        {
          "internalType": "uint256",
          "name": "min_exchange_rate",
          "type": "uint256"
        }
      ],
      "name": "swapTokensForETH",
      "outputs": [],
      "stateMutability": "payable",
      "type": "function"
    },
    {
      "inputs": [],
      "name": "token",
      "outputs": [
        {
          "internalType": "contract Token",
          "name": "",
          "type": "address"
        }
      ],
      "stateMutability": "view",
      "type": "function"
    },
    {
      "inputs": [
        {
          "internalType": "address",
          "name": "newOwner",
          "type": "address"
        }
      ],
      "name": "transferOwnership",
      "outputs": [],
      "stateMutability": "nonpayable",
      "type": "function"
    }
  ],
  "bytecode": "0x60806040526040518060400160405280600a81526020017f464949546368616e676500000000000000000000000000000000000000000000815250600190816200004a919062000491565b50735fbdb2315678afecb367f032d93f642f64180aa3600260006101000a81548173ffffffffffffffffffffffffffffffffffffffff021916908373ffffffffffffffffffffffffffffffffffffffff160217905550600260009054906101000a900473ffffffffffffffffffffffffffffffffffffffff16600360006101000a81548173ffffffffffffffffffffffffffffffffffffffff021916908373ffffffffffffffffffffffffffffffffffffffff16021790555060006004556000600555600360085560646009553480156200012457600080fd5b5062000145620001396200014b60201b60201c565b6200015360201b60201c565b62000578565b600033905090565b60008060009054906101000a900473ffffffffffffffffffffffffffffffffffffffff169050816000806101000a81548173ffffffffffffffffffffffffffffffffffffffff021916908373ffffffffffffffffffffffffffffffffffffffff1602179055508173ffffffffffffffffffffffffffffffffffffffff168173ffffffffffffffffffffffffffffffffffffffff167f8be0079c531659141344cd1fd0a4f28419497f9722a3daafe3b4186f6b6457e060405160405180910390a35050565b600081519050919050565b7f4e487b7100000000000000000000000000000000000000000000000000000000600052604160045260246000fd5b7f4e487b7100000000000000000000000000000000000000000000000000000000600052602260045260246000fd5b600060028204905060018216806200029957607f821691505b602082108103620002af57620002ae62000251565b5b50919050565b60008190508160005260206000209050919050565b60006020601f8301049050919050565b600082821b905092915050565b600060088302620003197fffffffffffffffffffffffffffffffffffffffffffffffffffffffffffffffff82620002da565b620003258683620002da565b95508019841693508086168417925050509392505050565b6000819050919050565b6000819050919050565b6000620003726200036c62000366846200033d565b62000347565b6200033d565b9050919050565b6000819050919050565b6200038e8362000351565b620003a66200039d8262000379565b848454620002e7565b825550505050565b600090565b620003bd620003ae565b620003ca81848462000383565b505050565b5b81811015620003f257620003e6600082620003b3565b600181019050620003d0565b5050565b601f82111562000441576200040b81620002b5565b6200041684620002ca565b8101602085101562000426578190505b6200043e6200043585620002ca565b830182620003cf565b50505b505050565b600082821c905092915050565b6000620004666000198460080262000446565b1980831691505092915050565b600062000481838362000453565b9150826002028217905092915050565b6200049c8262000217565b67ffffffffffffffff811115620004b857620004b762000222565b5b620004c4825462000280565b620004d1828285620003f6565b600060209050601f831160018114620005095760008415620004f4578287015190505b62000500858262000473565b86555062000570565b601f1984166200051986620002b5565b60005b8281101562000543578489015182556001820191506020850194506020810190506200051c565b868310156200056357848901516200055f601f89168262000453565b8355505b6001600288020188555050505b505050505050565b61341580620005886000396000f3fe6080604052600436106100c25760003560e01c80638da5cb5b1161007f578063d4cadf6811610059578063d4cadf68146101dd578063f2fde38b14610209578063f694f7d114610232578063fc0c546a1461025d576100c2565b80638da5cb5b1461017a5780639cd441da146101a5578063a22280a6146101c1576100c2565b80630902f1ac146100c75780632eab2841146100f357806358ad6de41461010f578063715018a61461012b5780638259e6a014610142578063857620e11461015e575b600080fd5b3480156100d357600080fd5b506100dc610288565b6040516100ea929190612254565b60405180910390f35b61010d600480360381019061010891906122ae565b610299565b005b610129600480360381019061012491906122db565b61058f565b005b34801561013757600080fd5b50610140610a5e565b005b61015c600480360381019061015791906122ae565b610a72565b005b6101786004803603810190610173919061231b565b610dd3565b005b34801561018657600080fd5b5061018f6112fa565b60405161019c91906123af565b60405180910390f35b6101bf60048036038101906101ba91906122db565b611323565b005b6101db60048036038101906101d691906122db565b6118f9565b005b3480156101e957600080fd5b506101f2611c45565b604051610200929190612254565b60405180910390f35b34801561021557600080fd5b50610230600480360381019061022b91906123f6565b611c56565b005b34801561023e57600080fd5b50610247611cd9565b60405161025491906124b3565b60405180910390f35b34801561026957600080fd5b50610272611d67565b60405161027f9190612534565b60405180910390f35b600080600454600554915091509091565b600034116102dc576040517f08c379a00000000000000000000000000000000000000000000000000000000081526004016102d39061259b565b60405180910390fd5b600060055411610321576040517f08c379a000000000000000000000000000000000000000000000000000000000815260040161031890612607565b60405180910390fd5b6000600554600454346103349190612656565b61033e91906126c7565b9050600160045461034f91906126f8565b811115610391576040517f08c379a000000000000000000000000000000000000000000000000000000000815260040161038890612778565b60405180910390fd5b6000600954600854836103a49190612656565b6103ae91906126c7565b905080826103bc91906126f8565b91506000346103e8846103cf9190612656565b6103d991906126c7565b90508381101561041e576040517f08c379a00000000000000000000000000000000000000000000000000000000081526004016104159061280a565b60405180910390fd5b826004600082825461043091906126f8565b925050819055503460056000828254610449919061282a565b925050819055506104916040518060400160405280600981526020017f6b206265666f72653a0000000000000000000000000000000000000000000000815250600a54611d8d565b6005546004546104a19190612656565b600a819055506104e86040518060400160405280600881526020017f6b2061667465723a000000000000000000000000000000000000000000000000815250600a54611d8d565b600360009054906101000a900473ffffffffffffffffffffffffffffffffffffffff1673ffffffffffffffffffffffffffffffffffffffff1663a9059cbb33856040518363ffffffff1660e01b815260040161054592919061285e565b6020604051808303816000875af1158015610564573d6000803e3d6000fd5b505050506040513d601f19601f8201168201806040525081019061058891906128bf565b5050505050565b6000600660003373ffffffffffffffffffffffffffffffffffffffff1673ffffffffffffffffffffffffffffffffffffffff1681526020019081526020016000205411610611576040517f08c379a000000000000000000000000000000000000000000000000000000000815260040161060890612938565b60405180910390fd5b60006005546103e86004546106269190612656565b61063091906126c7565b905082811115610675576040517f08c379a000000000000000000000000000000000000000000000000000000000815260040161066c906129ca565b60405180910390fd5b818110156106b8576040517f08c379a00000000000000000000000000000000000000000000000000000000081526004016106af90612a5c565b60405180910390fd5b6000600660003373ffffffffffffffffffffffffffffffffffffffff1673ffffffffffffffffffffffffffffffffffffffff16815260200190815260200160002054905060006005546004548361070f9190612656565b61071991906126c7565b9050600160055461072a91906126f8565b82111561076c576040517f08c379a000000000000000000000000000000000000000000000000000000000815260040161076390612ac8565b60405180910390fd5b600160045461077b91906126f8565b8111156107bd576040517f08c379a00000000000000000000000000000000000000000000000000000000081526004016107b490612778565b60405180910390fd5b80600460008282546107cf91906126f8565b9250508190555081600560008282546107e891906126f8565b925050819055506108306040518060400160405280600981526020017f6b206265666f72653a0000000000000000000000000000000000000000000000815250600a54611d8d565b6005546004546108409190612656565b600a819055506108876040518060400160405280600881526020017f6b2061667465723a000000000000000000000000000000000000000000000000815250600a54611d8d565b60005b600780549050811015610929573373ffffffffffffffffffffffffffffffffffffffff16600782815481106108c2576108c1612ae8565b5b9060005260206000200160009054906101000a900473ffffffffffffffffffffffffffffffffffffffff1673ffffffffffffffffffffffffffffffffffffffff16036109165761091181611e29565b610929565b808061092190612b17565b91505061088a565b506000600660003373ffffffffffffffffffffffffffffffffffffffff1673ffffffffffffffffffffffffffffffffffffffff16815260200190815260200160002081905550600360009054906101000a900473ffffffffffffffffffffffffffffffffffffffff1673ffffffffffffffffffffffffffffffffffffffff1663a9059cbb33836040518363ffffffff1660e01b81526004016109cc92919061285e565b6020604051808303816000875af11580156109eb573d6000803e3d6000fd5b505050506040513d601f19601f82011682018060405250810190610a0f91906128bf565b503373ffffffffffffffffffffffffffffffffffffffff166108fc839081150290604051600060405180830381858888f19350505050158015610a56573d6000803e3d6000fd5b505050505050565b610a66611f66565b610a706000611fe4565b565b610a7a611f66565b600060045414610abf576040517f08c379a0000000000000000000000000000000000000000000000000000000008152600401610ab690612bab565b60405180910390fd5b600060055414610b04576040517f08c379a0000000000000000000000000000000000000000000000000000000008152600401610afb90612c17565b60405180910390fd5b60003411610b47576040517f08c379a0000000000000000000000000000000000000000000000000000000008152600401610b3e90612c83565b60405180910390fd5b6000600360009054906101000a900473ffffffffffffffffffffffffffffffffffffffff1673ffffffffffffffffffffffffffffffffffffffff166370a08231336040518263ffffffff1660e01b8152600401610ba491906123af565b602060405180830381865afa158015610bc1573d6000803e3d6000fd5b505050506040513d601f19601f82011682018060405250810190610be59190612cb8565b905080821115610c2a576040517f08c379a0000000000000000000000000000000000000000000000000000000008152600401610c2190612d57565b60405180910390fd5b60008211610c6d576040517f08c379a0000000000000000000000000000000000000000000000000000000008152600401610c6490612dc3565b60405180910390fd5b600360009054906101000a900473ffffffffffffffffffffffffffffffffffffffff1673ffffffffffffffffffffffffffffffffffffffff166323b872dd3330856040518463ffffffff1660e01b8152600401610ccc93929190612de3565b6020604051808303816000875af1158015610ceb573d6000803e3d6000fd5b505050506040513d601f19601f82011682018060405250810190610d0f91906128bf565b50600360009054906101000a900473ffffffffffffffffffffffffffffffffffffffff1673ffffffffffffffffffffffffffffffffffffffff166370a08231306040518263ffffffff1660e01b8152600401610d6b91906123af565b602060405180830381865afa158015610d88573d6000803e3d6000fd5b505050506040513d601f19601f82011682018060405250810190610dac9190612cb8565b60048190555034600581905550600554600454610dc99190612656565b600a819055505050565b60008311610e16576040517f08c379a0000000000000000000000000000000000000000000000000000000008152600401610e0d90612e66565b60405180910390fd5b6001600554610e2591906126f8565b831115610e67576040517f08c379a0000000000000000000000000000000000000000000000000000000008152600401610e5e90612ac8565b60405180910390fd5b600660003373ffffffffffffffffffffffffffffffffffffffff1673ffffffffffffffffffffffffffffffffffffffff16815260200190815260200160002054831115610ee9576040517f08c379a0000000000000000000000000000000000000000000000000000000008152600401610ee090612ef8565b60405180910390fd5b60006005546103e8600454610efe9190612656565b610f0891906126c7565b905082811115610f4d576040517f08c379a0000000000000000000000000000000000000000000000000000000008152600401610f44906129ca565b60405180910390fd5b81811015610f90576040517f08c379a0000000000000000000000000000000000000000000000000000000008152600401610f8790612a5c565b60405180910390fd5b600060055460045486610fa39190612656565b610fad91906126c7565b90506001600454610fbe91906126f8565b811115611000576040517f08c379a0000000000000000000000000000000000000000000000000000000008152600401610ff790612778565b60405180910390fd5b806004600082825461101291906126f8565b92505081905550846005600082825461102b91906126f8565b925050819055506110736040518060400160405280600981526020017f6b206265666f72653a0000000000000000000000000000000000000000000000815250600a54611d8d565b6005546004546110839190612656565b600a819055506110ca6040518060400160405280600881526020017f6b2061667465723a000000000000000000000000000000000000000000000000815250600a54611d8d565b84600660003373ffffffffffffffffffffffffffffffffffffffff1673ffffffffffffffffffffffffffffffffffffffff168152602001908152602001600020600082825461111991906126f8565b925050819055506000600660003373ffffffffffffffffffffffffffffffffffffffff1673ffffffffffffffffffffffffffffffffffffffff168152602001908152602001600020540361120b5760005b600780549050811015611209573373ffffffffffffffffffffffffffffffffffffffff16600782815481106111a2576111a1612ae8565b5b9060005260206000200160009054906101000a900473ffffffffffffffffffffffffffffffffffffffff1673ffffffffffffffffffffffffffffffffffffffff16036111f6576111f181611e29565b611209565b808061120190612b17565b91505061116a565b505b600360009054906101000a900473ffffffffffffffffffffffffffffffffffffffff1673ffffffffffffffffffffffffffffffffffffffff1663a9059cbb33836040518363ffffffff1660e01b815260040161126892919061285e565b6020604051808303816000875af1158015611287573d6000803e3d6000fd5b505050506040513d601f19601f820116820180604052508101906112ab91906128bf565b503373ffffffffffffffffffffffffffffffffffffffff166108fc869081150290604051600060405180830381858888f193505050501580156112f2573d6000803e3d6000fd5b505050505050565b60008060009054906101000a900473ffffffffffffffffffffffffffffffffffffffff16905090565b6113626040518060400160405280601f81526020017f6164644c69717569646974793a206d73672e76616c7565202845544829203d0081525034611d8d565b600034116113a5576040517f08c379a000000000000000000000000000000000000000000000000000000000815260040161139c90612f64565b60405180910390fd5b611402604051806060016040528060258152602001613397602591396004546040518060400160405280601481526020017f6574685f7265736572766573202845544829203d0000000000000000000000008152506005546120a8565b600060045411801561141657506000600554115b611455576040517f08c379a000000000000000000000000000000000000000000000000000000000815260040161144c90612607565b60405180910390fd5b60006005546103e860045461146a9190612656565b61147491906126c7565b9050828111156114b9576040517f08c379a00000000000000000000000000000000000000000000000000000000081526004016114b0906129ca565b60405180910390fd5b818110156114fc576040517f08c379a00000000000000000000000000000000000000000000000000000000081526004016114f390612a5c565b60405180910390fd5b60006005546004543461150f9190612656565b61151991906126c7565b905061153d60405180606001604052806022815260200161332e6022913982611d8d565b6000600360009054906101000a900473ffffffffffffffffffffffffffffffffffffffff1673ffffffffffffffffffffffffffffffffffffffff166370a08231336040518263ffffffff1660e01b815260040161159a91906123af565b602060405180830381865afa1580156115b7573d6000803e3d6000fd5b505050506040513d601f19601f820116820180604052508101906115db9190612cb8565b90506115ff6040518060600160405280602581526020016133506025913982611d8d565b81811015611642576040517f08c379a000000000000000000000000000000000000000000000000000000000815260040161163990612fd0565b60405180910390fd5b6116636040518060600160405280602281526020016133756022913961214a565b600360009054906101000a900473ffffffffffffffffffffffffffffffffffffffff1673ffffffffffffffffffffffffffffffffffffffff166323b872dd3330856040518463ffffffff1660e01b81526004016116c293929190612de3565b6020604051808303816000875af11580156116e1573d6000803e3d6000fd5b505050506040513d601f19601f8201168201806040525081019061170591906128bf565b508160046000828254611718919061282a565b925050819055503460056000828254611731919061282a565b925050819055506117796040518060400160405280600981526020017f6b206265666f72653a0000000000000000000000000000000000000000000000815250600a54611d8d565b6005546004546117899190612656565b600a819055506117d06040518060400160405280600881526020017f6b2061667465723a000000000000000000000000000000000000000000000000815250600a54611d8d565b6000600660003373ffffffffffffffffffffffffffffffffffffffff1673ffffffffffffffffffffffffffffffffffffffff168152602001908152602001600020540361187b576007339080600181540180825580915050600190039060005260206000200160009091909190916101000a81548173ffffffffffffffffffffffffffffffffffffffff021916908373ffffffffffffffffffffffffffffffffffffffff1602179055505b34600660003373ffffffffffffffffffffffffffffffffffffffff1673ffffffffffffffffffffffffffffffffffffffff16815260200190815260200160002060008282546118ca919061282a565b925050819055506118f26040518060600160405280602481526020016133bc6024913961214a565b5050505050565b6000821161193c576040517f08c379a00000000000000000000000000000000000000000000000000000000081526004016119339061303c565b60405180910390fd5b600160045461194b91906126f8565b82111561198d576040517f08c379a000000000000000000000000000000000000000000000000000000000815260040161198490612778565b60405180910390fd5b6000600454600554846119a09190612656565b6119aa91906126c7565b905060016005546119bb91906126f8565b8111156119fd576040517f08c379a00000000000000000000000000000000000000000000000000000000081526004016119f490612ac8565b60405180910390fd5b600060095460085483611a109190612656565b611a1a91906126c7565b90508082611a2891906126f8565b91506000846103e884611a3b9190612656565b611a4591906126c7565b905083811015611a8a576040517f08c379a0000000000000000000000000000000000000000000000000000000008152600401611a819061280a565b60405180910390fd5b600360009054906101000a900473ffffffffffffffffffffffffffffffffffffffff1673ffffffffffffffffffffffffffffffffffffffff166323b872dd3330886040518463ffffffff1660e01b8152600401611ae993929190612de3565b6020604051808303816000875af1158015611b08573d6000803e3d6000fd5b505050506040513d601f19601f82011682018060405250810190611b2c91906128bf565b508460046000828254611b3f919061282a565b925050819055508260056000828254611b5891906126f8565b92505081905550611ba06040518060400160405280600981526020017f6b206265666f72653a0000000000000000000000000000000000000000000000815250600a54611d8d565b600554600454611bb09190612656565b600a81905550611bf76040518060400160405280600881526020017f6b2061667465723a000000000000000000000000000000000000000000000000815250600a54611d8d565b3373ffffffffffffffffffffffffffffffffffffffff166108fc849081150290604051600060405180830381858888f19350505050158015611c3d573d6000803e3d6000fd5b505050505050565b600080600854600954915091509091565b611c5e611f66565b600073ffffffffffffffffffffffffffffffffffffffff168173ffffffffffffffffffffffffffffffffffffffff1603611ccd576040517f08c379a0000000000000000000000000000000000000000000000000000000008152600401611cc4906130ce565b60405180910390fd5b611cd681611fe4565b50565b60018054611ce69061311d565b80601f0160208091040260200160405190810160405280929190818152602001828054611d129061311d565b8015611d5f5780601f10611d3457610100808354040283529160200191611d5f565b820191906000526020600020905b815481529060010190602001808311611d4257829003601f168201915b505050505081565b600360009054906101000a900473ffffffffffffffffffffffffffffffffffffffff1681565b611e258282604051602401611da392919061314e565b6040516020818303038152906040527fb60e72cc000000000000000000000000000000000000000000000000000000007bffffffffffffffffffffffffffffffffffffffffffffffffffffffff19166020820180517bffffffffffffffffffffffffffffffffffffffffffffffffffffffff83818316178352505050506121e3565b5050565b6007805490508110611e70576040517f08c379a0000000000000000000000000000000000000000000000000000000008152600401611e67906131f0565b60405180910390fd5b60076001600780549050611e8491906126f8565b81548110611e9557611e94612ae8565b5b9060005260206000200160009054906101000a900473ffffffffffffffffffffffffffffffffffffffff1660078281548110611ed457611ed3612ae8565b5b9060005260206000200160006101000a81548173ffffffffffffffffffffffffffffffffffffffff021916908373ffffffffffffffffffffffffffffffffffffffff1602179055506007805480611f2e57611f2d613210565b5b6001900381819060005260206000200160006101000a81549073ffffffffffffffffffffffffffffffffffffffff0219169055905550565b611f6e6121fd565b73ffffffffffffffffffffffffffffffffffffffff16611f8c6112fa565b73ffffffffffffffffffffffffffffffffffffffff1614611fe2576040517f08c379a0000000000000000000000000000000000000000000000000000000008152600401611fd99061328b565b60405180910390fd5b565b60008060009054906101000a900473ffffffffffffffffffffffffffffffffffffffff169050816000806101000a81548173ffffffffffffffffffffffffffffffffffffffff021916908373ffffffffffffffffffffffffffffffffffffffff1602179055508173ffffffffffffffffffffffffffffffffffffffff168173ffffffffffffffffffffffffffffffffffffffff167f8be0079c531659141344cd1fd0a4f28419497f9722a3daafe3b4186f6b6457e060405160405180910390a35050565b612144848484846040516024016120c294939291906132ab565b6040516020818303038152906040527fc67ea9d1000000000000000000000000000000000000000000000000000000007bffffffffffffffffffffffffffffffffffffffffffffffffffffffff19166020820180517bffffffffffffffffffffffffffffffffffffffffffffffffffffffff83818316178352505050506121e3565b50505050565b6121e08160405160240161215e91906124b3565b6040516020818303038152906040527f41304fac000000000000000000000000000000000000000000000000000000007bffffffffffffffffffffffffffffffffffffffffffffffffffffffff19166020820180517bffffffffffffffffffffffffffffffffffffffffffffffffffffffff83818316178352505050506121e3565b50565b6121fa816121f2612205612226565b63ffffffff16565b50565b600033905090565b60006a636f6e736f6c652e6c6f679050600080835160208501845afa505050565b612231819050919050565b6122396132fe565b565b6000819050919050565b61224e8161223b565b82525050565b60006040820190506122696000830185612245565b6122766020830184612245565b9392505050565b600080fd5b61228b8161223b565b811461229657600080fd5b50565b6000813590506122a881612282565b92915050565b6000602082840312156122c4576122c361227d565b5b60006122d284828501612299565b91505092915050565b600080604083850312156122f2576122f161227d565b5b600061230085828601612299565b925050602061231185828601612299565b9150509250929050565b6000806000606084860312156123345761233361227d565b5b600061234286828701612299565b935050602061235386828701612299565b925050604061236486828701612299565b9150509250925092565b600073ffffffffffffffffffffffffffffffffffffffff82169050919050565b60006123998261236e565b9050919050565b6123a98161238e565b82525050565b60006020820190506123c460008301846123a0565b92915050565b6123d38161238e565b81146123de57600080fd5b50565b6000813590506123f0816123ca565b92915050565b60006020828403121561240c5761240b61227d565b5b600061241a848285016123e1565b91505092915050565b600081519050919050565b600082825260208201905092915050565b60005b8381101561245d578082015181840152602081019050612442565b60008484015250505050565b6000601f19601f8301169050919050565b600061248582612423565b61248f818561242e565b935061249f81856020860161243f565b6124a881612469565b840191505092915050565b600060208201905081810360008301526124cd818461247a565b905092915050565b6000819050919050565b60006124fa6124f56124f08461236e565b6124d5565b61236e565b9050919050565b600061250c826124df565b9050919050565b600061251e82612501565b9050919050565b61252e81612513565b82525050565b60006020820190506125496000830184612525565b92915050565b7f4d7573742073656e642045544820746f20737761700000000000000000000000600082015250565b600061258560158361242e565b91506125908261254f565b602082019050919050565b600060208201905081810360008301526125b481612578565b9050919050565b7f506f6f6c206e6f7420696e697469616c697a6564000000000000000000000000600082015250565b60006125f160148361242e565b91506125fc826125bb565b602082019050919050565b60006020820190508181036000830152612620816125e4565b9050919050565b7f4e487b7100000000000000000000000000000000000000000000000000000000600052601160045260246000fd5b60006126618261223b565b915061266c8361223b565b925082820261267a8161223b565b9150828204841483151761269157612690612627565b5b5092915050565b7f4e487b7100000000000000000000000000000000000000000000000000000000600052601260045260246000fd5b60006126d28261223b565b91506126dd8361223b565b9250826126ed576126ec612698565b5b828204905092915050565b60006127038261223b565b915061270e8361223b565b925082820390508181111561272657612725612627565b5b92915050565b7f4e6f7420656e6f75676820746f6b656e7320696e207265736572766573000000600082015250565b6000612762601d8361242e565b915061276d8261272c565b602082019050919050565b6000602082019050818103600083015261279181612755565b9050919050565b7f536c69707061676520746f6f20686967683a2065786368616e6765207261746560008201527f2062656c6f77206d696e696d756d000000000000000000000000000000000000602082015250565b60006127f4602e8361242e565b91506127ff82612798565b604082019050919050565b60006020820190508181036000830152612823816127e7565b9050919050565b60006128358261223b565b91506128408361223b565b925082820190508082111561285857612857612627565b5b92915050565b600060408201905061287360008301856123a0565b6128806020830184612245565b9392505050565b60008115159050919050565b61289c81612887565b81146128a757600080fd5b50565b6000815190506128b981612893565b92915050565b6000602082840312156128d5576128d461227d565b5b60006128e3848285016128aa565b91505092915050565b7f4e6f206c697175696469747920746f2072656d6f766500000000000000000000600082015250565b600061292260168361242e565b915061292d826128ec565b602082019050919050565b6000602082019050818103600083015261295181612915565b9050919050565b7f536c69707061676520746f6f20686967683a2065786368616e6765207261746560008201527f2061626f7665206d6178696d756d000000000000000000000000000000000000602082015250565b60006129b4602e8361242e565b91506129bf82612958565b604082019050919050565b600060208201905081810360008301526129e3816129a7565b9050919050565b7f536c69707061676520746f6f206c6f773a2065786368616e676520726174652060008201527f62656c6f77206d696e696d756d00000000000000000000000000000000000000602082015250565b6000612a46602d8361242e565b9150612a51826129ea565b604082019050919050565b60006020820190508181036000830152612a7581612a39565b9050919050565b7f4e6f7420656e6f7567682045544820696e207265736572766573000000000000600082015250565b6000612ab2601a8361242e565b9150612abd82612a7c565b602082019050919050565b60006020820190508181036000830152612ae181612aa5565b9050919050565b7f4e487b7100000000000000000000000000000000000000000000000000000000600052603260045260246000fd5b6000612b228261223b565b91507fffffffffffffffffffffffffffffffffffffffffffffffffffffffffffffffff8203612b5457612b53612627565b5b600182019050919050565b7f546f6b656e20726573657276657320776173206e6f7420300000000000000000600082015250565b6000612b9560188361242e565b9150612ba082612b5f565b602082019050919050565b60006020820190508181036000830152612bc481612b88565b9050919050565b7f45544820726573657276657320776173206e6f7420302e000000000000000000600082015250565b6000612c0160178361242e565b9150612c0c82612bcb565b602082019050919050565b60006020820190508181036000830152612c3081612bf4565b9050919050565b7f4e6565642065746820746f2063726561746520706f6f6c2e0000000000000000600082015250565b6000612c6d60188361242e565b9150612c7882612c37565b602082019050919050565b60006020820190508181036000830152612c9c81612c60565b9050919050565b600081519050612cb281612282565b92915050565b600060208284031215612cce57612ccd61227d565b5b6000612cdc84828501612ca3565b91505092915050565b7f4e6f74206861766520656e6f75676820746f6b656e7320746f2063726561746560008201527f2074686520706f6f6c0000000000000000000000000000000000000000000000602082015250565b6000612d4160298361242e565b9150612d4c82612ce5565b604082019050919050565b60006020820190508181036000830152612d7081612d34565b9050919050565b7f4e65656420746f6b656e7320746f2063726561746520706f6f6c2e0000000000600082015250565b6000612dad601b8361242e565b9150612db882612d77565b602082019050919050565b60006020820190508181036000830152612ddc81612da0565b9050919050565b6000606082019050612df860008301866123a0565b612e0560208301856123a0565b612e126040830184612245565b949350505050565b7f416d6f756e74206d7573742062652067726561746572207468616e2030000000600082015250565b6000612e50601d8361242e565b9150612e5b82612e1a565b602082019050919050565b60006020820190508181036000830152612e7f81612e43565b9050919050565b7f4e6f7420656e6f756768206c69717569646974792070726f766964656420627960008201527f2073656e64657200000000000000000000000000000000000000000000000000602082015250565b6000612ee260278361242e565b9150612eed82612e86565b604082019050919050565b60006020820190508181036000830152612f1181612ed5565b9050919050565b7f4e6565642045544820746f20616464206c697175696469747900000000000000600082015250565b6000612f4e60198361242e565b9150612f5982612f18565b602082019050919050565b60006020820190508181036000830152612f7d81612f41565b9050919050565b7f496e73756666696369656e7420746f6b656e2062616c616e6365000000000000600082015250565b6000612fba601a8361242e565b9150612fc582612f84565b602082019050919050565b60006020820190508181036000830152612fe981612fad565b9050919050565b7f4d7573742073656e6420746f6b656e7320746f20737761700000000000000000600082015250565b600061302660188361242e565b915061303182612ff0565b602082019050919050565b6000602082019050818103600083015261305581613019565b9050919050565b7f4f776e61626c653a206e6577206f776e657220697320746865207a65726f206160008201527f6464726573730000000000000000000000000000000000000000000000000000602082015250565b60006130b860268361242e565b91506130c38261305c565b604082019050919050565b600060208201905081810360008301526130e7816130ab565b9050919050565b7f4e487b7100000000000000000000000000000000000000000000000000000000600052602260045260246000fd5b6000600282049050600182168061313557607f821691505b602082108103613148576131476130ee565b5b50919050565b60006040820190508181036000830152613168818561247a565b90506131776020830184612245565b9392505050565b7f73706563696669656420696e646578206973206c6172676572207468616e207460008201527f6865206e756d626572206f66206c707300000000000000000000000000000000602082015250565b60006131da60308361242e565b91506131e58261317e565b604082019050919050565b60006020820190508181036000830152613209816131cd565b9050919050565b7f4e487b7100000000000000000000000000000000000000000000000000000000600052603160045260246000fd5b7f4f776e61626c653a2063616c6c6572206973206e6f7420746865206f776e6572600082015250565b600061327560208361242e565b91506132808261323f565b602082019050919050565b600060208201905081810360008301526132a481613268565b9050919050565b600060808201905081810360008301526132c5818761247a565b90506132d46020830186612245565b81810360408301526132e6818561247a565b90506132f56060830184612245565b95945050505050565b7f4e487b7100000000000000000000000000000000000000000000000000000000600052605160045260246000fdfe6164644c69717569646974793a20746f6b656e416d6f756e74202850524d5429203d6164644c69717569646974793a2073656e6465722062616c616e6365202850524d5429203d6164644c69717569646974793a2063616c6c696e67207472616e7366657246726f6d6164644c69717569646974793a20746f6b656e5f7265736572766573202850524d5429203d6164644c69717569646974793a20636f6d706c65746564207375636365737366756c6c79a26469706673582212206aaf06235f9d2d0d786d3363f6dafc822a5a8247f4234b3802a73c3f6e12625464736f6c63430008110033",
  "linkReferences": {},
  "deployedLinkReferences": {}
}